{
  "contractName": "Haltable",
  "abi": [
    {
      "constant": true,
      "inputs": [],
      "name": "owner",
      "outputs": [
        {
          "name": "",
          "type": "address"
        }
      ],
      "payable": false,
      "stateMutability": "view",
      "type": "function"
    },
    {
      "constant": true,
      "inputs": [],
      "name": "halted",
      "outputs": [
        {
          "name": "",
          "type": "bool"
        }
      ],
      "payable": false,
      "stateMutability": "view",
      "type": "function"
    },
    {
      "constant": false,
      "inputs": [
        {
          "name": "newOwner",
          "type": "address"
        }
      ],
      "name": "transferOwnership",
      "outputs": [],
      "payable": false,
      "stateMutability": "nonpayable",
      "type": "function"
    },
    {
      "anonymous": false,
      "inputs": [
        {
          "indexed": true,
          "name": "previousOwner",
          "type": "address"
        },
        {
          "indexed": true,
          "name": "newOwner",
          "type": "address"
        }
      ],
      "name": "OwnershipTransferred",
      "type": "event"
    },
    {
      "constant": false,
      "inputs": [],
      "name": "halt",
      "outputs": [],
      "payable": false,
      "stateMutability": "nonpayable",
      "type": "function"
    },
    {
      "constant": false,
      "inputs": [],
      "name": "unhalt",
      "outputs": [],
      "payable": false,
      "stateMutability": "nonpayable",
      "type": "function"
    }
  ],
  "bytecode": "0x608060405260008060146101000a81548160ff021916908315150217905550336000806101000a81548173ffffffffffffffffffffffffffffffffffffffff021916908373ffffffffffffffffffffffffffffffffffffffff16021790555061042c8061006d6000396000f30060806040526004361061006d576000357c0100000000000000000000000000000000000000000000000000000000900463ffffffff1680635ed7ca5b146100725780638da5cb5b14610089578063b9b8af0b146100e0578063cb3e64fd1461010f578063f2fde38b14610126575b600080fd5b34801561007e57600080fd5b50610087610169565b005b34801561009557600080fd5b5061009e6101e1565b604051808273ffffffffffffffffffffffffffffffffffffffff1673ffffffffffffffffffffffffffffffffffffffff16815260200191505060405180910390f35b3480156100ec57600080fd5b506100f5610206565b604051808215151515815260200191505060405180910390f35b34801561011b57600080fd5b50610124610219565b005b34801561013257600080fd5b50610167600480360381019080803573ffffffffffffffffffffffffffffffffffffffff1690602001909291905050506102ab565b005b6000809054906101000a900473ffffffffffffffffffffffffffffffffffffffff1673ffffffffffffffffffffffffffffffffffffffff163373ffffffffffffffffffffffffffffffffffffffff161415156101c457600080fd5b6001600060146101000a81548160ff021916908315150217905550565b6000809054906101000a900473ffffffffffffffffffffffffffffffffffffffff1681565b600060149054906101000a900460ff1681565b6000809054906101000a900473ffffffffffffffffffffffffffffffffffffffff1673ffffffffffffffffffffffffffffffffffffffff163373ffffffffffffffffffffffffffffffffffffffff1614151561027457600080fd5b600060149054906101000a900460ff16151561028f57600080fd5b60008060146101000a81548160ff021916908315150217905550565b6000809054906101000a900473ffffffffffffffffffffffffffffffffffffffff1673ffffffffffffffffffffffffffffffffffffffff163373ffffffffffffffffffffffffffffffffffffffff1614151561030657600080fd5b600073ffffffffffffffffffffffffffffffffffffffff168173ffffffffffffffffffffffffffffffffffffffff161415151561034257600080fd5b8073ffffffffffffffffffffffffffffffffffffffff166000809054906101000a900473ffffffffffffffffffffffffffffffffffffffff1673ffffffffffffffffffffffffffffffffffffffff167f8be0079c531659141344cd1fd0a4f28419497f9722a3daafe3b4186f6b6457e060405160405180910390a3806000806101000a81548173ffffffffffffffffffffffffffffffffffffffff021916908373ffffffffffffffffffffffffffffffffffffffff160217905550505600a165627a7a72305820257050a7bf5a9f91e2ff7d90f9e0d53b10ede16e058d7337226a1557b5d300150029",
  "source": "pragma solidity ^0.4.22;\ncontract ERC20 {\n    function totalSupply() constant public returns (uint totalsupply);\n    function balanceOf(address _owner) constant public returns (uint balance);\n    function transfer(address _to, uint _value) public returns (bool success);\n    function transferFrom(address _from, address _to, uint _value) public returns (bool success);\n    function approve(address _spender, uint _value) public returns (bool success);\n    function allowance(address _owner, address _spender) constant public returns (uint remaining);\n    event Transfer(address indexed _from, address indexed _to, uint _value);\n    event Approval(address indexed _owner, address indexed _spender, uint _value);\n}\n/**\n * @title Ownable\n * @dev The Ownable contract has an owner address, and provides basic authorization control\n * functions, this simplifies the implementation of \"user permissions\".\n */\ncontract Ownable {\n    address public owner;\n\n\n    event OwnershipTransferred(address indexed previousOwner, address indexed newOwner);\n\n\n    /**\n     * @dev The Ownable constructor sets the original `owner` of the contract to the sender\n     * account.\n     */\n    constructor() public {\n        owner = msg.sender;\n    }\n\n\n    /**\n     * @dev Throws if called by any account other than the owner.\n     */\n    modifier onlyOwner() {\n        require(msg.sender == owner);\n        _;\n    }\n\n\n    /**\n     * @dev Allows the current owner to transfer control of the contract to a newOwner.\n     * @param newOwner The address to transfer ownership to.\n     */\n    function transferOwnership(address newOwner) public onlyOwner {\n        require(newOwner != address(0));\n        emit OwnershipTransferred(owner, newOwner);\n        owner = newOwner;\n    }\n\n}\n\n\n\n/**\n * @title SafeMath\n * @dev Math operations with safety checks that throw on error\n */\nlibrary SafeMath {\n    function mul(uint256 a, uint256 b) internal pure returns (uint256) {\n        if (a == 0) {\n            return 0;\n        }\n        uint256 c = a * b;\n        assert(c / a == b);\n        return c;\n    }\n\n    function div(uint256 a, uint256 b) internal pure returns (uint256) {\n        // assert(b > 0); // Solidity automatically throws when dividing by 0\n        uint256 c = a / b;\n        // assert(a == b * c + a % b); // There is no case in which this doesn't hold\n        return c;\n    }\n\n    function sub(uint256 a, uint256 b) internal pure returns (uint256) {\n        assert(b <= a);\n        return a - b;\n    }\n\n    function add(uint256 a, uint256 b) internal pure returns (uint256) {\n        uint256 c = a + b;\n        assert(c >= a);\n        return c;\n    }\n}\n\n\n\ncontract Haltable is Ownable {\n    bool public halted = false;\n\n    modifier stopInEmergency {\n        require (!halted);\n        _;\n    }\n\n    modifier stopNonOwnersInEmergency {\n        require(!halted || msg.sender == owner);\n        _;\n    }\n\n    modifier onlyInEmergency {\n        require (halted);\n        _;\n    }\n\n    // called by the owner on emergency, triggers stopped state\n    function halt() external onlyOwner {\n        halted = true;\n    }\n\n    // called by the owner on end of emergency, returns to normal state\n    function unhalt() external onlyOwner onlyInEmergency {\n        halted = false;\n    }\n\n}\n/**\n * @title LockPosition for Standard ERC20 token\n *\n * @dev Implementation of the Lock position and Airdrop Erc20 token.\n */\ncontract LockPosition  is Haltable{\n    using SafeMath for uint256;\n    //Rate Decimal\n    uint RateDecimal = 100000;\n    //Airdrop Rate for Every lock holder\n    uint AirdropRate;\n    //Lock positon duration\n    uint lockDuration;\n    //Erc20 token address\n    address public tokenAddress;\n    //Recommend Address reward rate\n    uint RecommendReward;\n    //Recommend Address unlock rate\n    uint RecommendUnlock;\n    //lock position info\n    struct LockInfo {\n        uint LockAmount;\n        uint LockTime;\n    }\n    //mapping of holders\n    mapping (address => LockInfo[]) lockPositonBalance;\n    /** List of all Holders **/\n    address[] public Holders;\n\n    event LockToken(address indexed from,uint _amount);\n    event LockTokenRecommend(address indexed from,address indexed recommend,uint _amount);\n    /**\n     * CONSTRUCTOR\n     *\n     * @notice Initialize the Erc20 token address\n     * @param tokenAddr The Erc20 token address\n     * @param lockDura Every lock position duration in seconds\n     * @param AirRate  Air drop rate\n     * @param RecomReward Recommend Lock position Reward rate\n     * @param RecomUnlock Recommend Lock position unlock rate\n     */\n\n    constructor(address tokenAddr,uint lockDura,uint AirRate,uint RecomReward,uint RecomUnlock)public{\n        require(tokenAddr != address(0));\n        tokenAddress = tokenAddr;\n        lockDuration = lockDura;\n        AirdropRate = AirRate;\n        RecommendReward = RecomReward;\n        RecommendUnlock = RecomUnlock;\n    }\n    /**\n     * @dev Set air drop Rate\n     * @param AirRate Air drop rate\n     */\n    function setAirdropRate(uint AirRate)public\n    onlyOwner\n    RateLimit(AirRate)\n    {\n        AirdropRate = AirRate;\n    }\n    /**\n     * @dev Set Every lock position duration in seconds\n     * @param time Every lock position duration in seconds\n     */\n    function setLockDuration(uint time)public\n    onlyOwner\n    {\n        lockDuration = time;\n    }\n    /**\n     * @dev Set Recommend Lock position Reward and unlock rate\n     * @param RecomReward Recommend Lock position Reward rate\n     * @param RecomReward Recommend Lock position unlock rate\n     */\n    function setRecommendReward(uint RecomReward,uint RecomUnlock)public\n    onlyOwner\n    RateLimit(RecomReward)\n    RateLimit(RecomUnlock)\n    {\n        RecommendReward = RecomReward;\n        RecommendUnlock = RecomUnlock;\n    }\n\n    function getTokenAddress() public view returns(address){\n        return tokenAddress;\n    }\n    function getAirdropRate() public view returns(uint){\n        return AirdropRate;\n    }\n    function getLockDuration() public view returns(uint){\n        return lockDuration;\n    }\n    function getRecommendReward() public view returns(uint,uint){\n        return (RecommendReward,RecommendUnlock);\n    }\n    function getHolders() public view returns(address[]){\n        return Holders;\n    }\n    /**\n     * @dev Retrieve some address's lock position info\n     * @param addr the retrieved address\n     * @return all lock postion info paired with Lock amount and lock time\n     */\n    function getLockInfo(address addr) public view returns(uint[]){\n        LockInfo[] storage info = lockPositonBalance[addr];\n        uint[] memory temp = new uint[](info.length*2);\n        for(uint i=0;i<info.length;i++){\n            temp[i*2] = info[i].LockAmount;\n            temp[i*2+1] = info[i].LockTime;\n        }\n        return temp;\n    }\n    /**\n     * @dev lock token from 'from' to this contract address\n     * @param amount the locked token amount\n     */\n    function Lock(uint256 amount) public amountLimit(amount) stopInEmergency {\n        lockPositonBalance[msg.sender].push(LockInfo({LockAmount:amount,LockTime:now}));\n        uint num = findHolder(msg.sender);\n        if (num == Holders.length){\n            addHolder(msg.sender,num);\n        }\n        emit LockToken(msg.sender,amount);\n        callTransferFrom(msg.sender,address(this),amount);\n    }\n    /**\n     * @dev lock token from 'from' to this contract address\n     * @param amount the locked token amount\n     * @param recommend the recommend address\n     */\n    function RecommendLock(uint256 amount, address recommend)public amountLimit(amount) stopInEmergency {\n        require(msg.sender != recommend);\n        Lock(amount);\n        recommendReward(recommend,amount);\n        emit LockTokenRecommend(msg.sender,recommend,amount);\n    }\n    /**\n     * @dev Air drop for locked token holders\n     */\n    function AirDrop()public onlyOwner stopInEmergency{\n        for (uint i = 0;i<Holders.length;i++){\n            LockInfo[] storage info = lockPositonBalance[Holders[i]];\n            for(uint j=0;j<info.length;j++){\n                LockInfo storage item = info[j];\n                if (item.LockAmount == 0)\n                    continue;\n                uint Amount = item.LockAmount * AirdropRate/RateDecimal;\n                callTransfer(Holders[i] ,Amount);\n            }\n        }\n    }\n    /**\n     * @dev withdraw all released tokens\n     */\n    function WithDraw()public stopInEmergency{\n        LockInfo[] storage info = lockPositonBalance[msg.sender];\n        uint begin = info.length;\n        for(uint i=0;i<info.length;i++){\n            LockInfo storage item = info[i];\n            if (SafeMath.add(item.LockTime,lockDuration) < now){\n                callTransfer(msg.sender,item.LockAmount);\n            }else{\n                begin = i;\n                break;\n            }\n        }\n        removeLockInfo(msg.sender,begin);\n    }\n    function recommendReward(address recommend,uint256 amount)internal returns(bool){\n        uint reward = amount*RecommendReward/RateDecimal;\n        uint unlock = amount*RecommendUnlock/RateDecimal;\n        uint send = unlock;\n        LockInfo[] storage info = lockPositonBalance[recommend];\n        uint begin = info.length;\n        for(uint i=0;i<info.length;i++){\n            LockInfo storage item = info[i];\n            if(item.LockAmount>send){\n                item.LockAmount -= send;\n                send = 0;\n                begin = i;\n                break;\n            }else{\n                send -= item.LockAmount;\n                item.LockAmount = 0;\n            }\n        }\n        removeLockInfo(recommend,begin);\n        if(send < unlock){\n            if (send > 0){\n                unlock = SafeMath.sub(unlock,send);\n            }\n            unlock = SafeMath.add(unlock,reward);\n            callTransfer(recommend,unlock);\n        }\n        return true;\n    }\n    function removeLockInfo(address sender,uint begin)internal{\n        if(begin>0){\n            LockInfo[] storage info = lockPositonBalance[sender];\n            LockInfo[] memory temp = new LockInfo[](info.length-begin);\n            for(uint i=begin;i<info.length;i++){\n                temp[i-begin] = info[i];\n            }\n            delete lockPositonBalance[sender];\n            for(i=0;i<temp.length;i++){\n                lockPositonBalance[sender].push(temp[i]);\n            }\n            if (temp.length == 0){\n                removeHolder(sender,findHolder(sender));\n            }\n        }\n    }\n    function findHolder(address _from)internal returns(uint){\n        for (uint i = 0;i<Holders.length;i++){\n            if (Holders[i] == _from){\n                return i;\n            }\n        }\n        return Holders.length;\n    }\n    function callTransfer(address _to,uint amount)internal{\n        require(ERC20(tokenAddress).transfer(_to,amount));\n//        return tokenAddress.call.gas(1000000)(bytes4(bytes32(keccak256(\"transfer(address,uint256)\"))),_to,amount);\n    }\n    function callTransferFrom(address _from,address _to,uint amount)internal returns(bool){\n        require(ERC20(tokenAddress).transferFrom(_from,_to,amount));\n    }\n    /**\n    * Adds a new stakeholder to the list.\n    * @param holder the address of the stakeholder\n    *        numSH  the current number of stakeholders\n    **/\n    function addHolder(address holder, uint numSH) internal{\n        if(numSH < Holders.length)\n            Holders[numSH] = holder;\n        else\n        {\n            Holders.push(holder);\n        }\n    }\n\n    /**\n    * Removes a depositor from the list.\n    * @param _from the address of the depositor\n    *        index  the index of the depositor\n    **/\n    function removeHolder(address _from, uint index) internal{\n        require(Holders.length>0 && Holders[index] == _from);\n        uint Len = Holders.length-1;\n        Holders[index] = Holders[Len];\n        address[] memory temp = new address[](Len);\n        for(uint i=0;i<Len;i++){\n            temp[i] = Holders[i];\n        }\n        Holders = temp;\n    }\n    modifier RateLimit(uint Rate) {\n        require(Rate<=RateDecimal);\n        _;\n    }\n    modifier amountLimit(uint amount) {\n        require(amount >= 10000e18 && amount%10000e18 == 0);\n        _;\n    }\n}\n",
  "sourcePath": "/home/cranelv/work/src/github.com/cranelv/truffle_MAN/test/firstSol/contracts/LockPosition.sol",
  "compiler": {
    "name": "solc",
    "version": "0.4.22+commit.4cb486ee.Emscripten.clang"
  },
  "schemaVersion": "3.0.11",
  "updatedAt": "2019-08-15T02:42:42.228Z",
  "devdoc": {
    "methods": {
      "transferOwnership(address)": {
        "details": "Allows the current owner to transfer control of the contract to a newOwner.",
        "params": {
          "newOwner": "The address to transfer ownership to."
        }
      }
    }
  },
  "userdoc": {
    "methods": {}
  }
}